:020000040800F2
:10000000000003208D1E0008591B00085B1B000820
:100010005D1B00085F1B0008611B0008000000005A
:10002000000000000000000000000000631B00084A
:10003000651B000800000000671B0008691B000822
:10004000DD1E0008DD1E0008DD1E0008DD1E0008A4
:10005000DD1E0008DD1E0008DD1E0008DD1E000894
:10006000711B0008DD1E0008DD1E0008DD1E0008F3
:10007000DD1E0008DD1E0008DD1E0008DD1E000874
:10008000DD1E0008DD1E0008DD1E0008DD1E000864
:100090007D1B0008DD1E0008DD1E0008DD1E0008B7
:1000A000DD1E0008DD1E0008DD1E0008DD1E000844
:1000B000DD1E0008DD1E0008DD1E0008DD1E000834
:1000C000DD1E0008DD1E0008DD1E0008DD1E000824
:1000D000DD1E0008DD1E0008DD1E0008DD1E000814
:1000E000DD1E0008DD1E0008DD1E0008DD1E000804
:1000F000DD1E0008DD1E0008DD1E0008DD1E0008F4
:10010000DD1E0008DD1E00088D1B0008DD1E000836
:10011000DD1E0008DD1E0008DD1E0008DD1E0008D3
:10012000DD1E00089D1B0008DD1E0008DD1E000806
:10013000DD1E0008DD1E0008DD1E0008DD1E0008B3
:10014000AD1B0008DD1E0008DD1E0008DD1E0008D6
:10015000DD1E0008BD1B0008DD1E0008CD1B0008C9
:10016000DD1E0008DD1E0008DD1E0008DD1E000883
:10017000DD1E0008DD1E0008DD1E00080000000076
:10018000DD1E0008DD1E0008DD1E0008DD1E000863
:10019000DD1E0008DD1E0008DD1E0008DD1E000853
:0C01A0000000000000000000DD1E000850
:1001C00010B5054C237833B9044B13B10448AFF391
:1001D00000800123237010BDBC0900200000000036
:1001E00018C5000808B5034B1BB103490348AFF31A
:1001F000008008BD00000000C009002018C50008EC
:100200004FF0FF0C1CEAD0521EBF1CEAD15392EAF9
:100210000C0F93EA0C0F6FD01A4480EA010C4002D5
:1002200018BF5FEA41211ED04FF0006343EA50102F
:1002300043EA5111A0FB01310CF00040B1F5000F71
:100240003EBF490041EAD3715B0040EA010062F120
:100250007F02FD2A1DD8B3F1004F40EBC25008BF0A
:1002600020F00100704790F0000F0CF0004C08BF28
:1002700049024CEA502040EA51207F3AC2BFD2F1F5
:10028000FF0340EAC250704740F400004FF0000303
:10029000013A5DDC12F1190FDCBF00F0004070473D
:1002A000C2F10002410021FA02F1C2F1200200FA7B
:1002B00002FC5FEA310040F1000053EA4C0308BF42
:1002C00020EADC70704792F0000F00F0004C02BF93
:1002D000400010F4000F013AF9D040EA0C0093F00E
:1002E000000F01F0004C02BF490011F4000F013B68
:1002F000F9D041EA0C018FE70CEAD15392EA0C0FD6
:1003000018BF93EA0C0F0AD030F0004C18BF31F040
:10031000004CD8D180EA010000F00040704790F016
:10032000000F17BF90F0004F084691F0000F91F0BA
:10033000004F14D092EA0C0F01D142020FD193EA80
:100340000C0F03D14B0218BF084608D180EA010008
:1003500000F0004040F0FE4040F40000704740F0E4
:10036000FE4040F44000704781F0004102E000BFD1
:1003700083F0004330B54FEA41044FEA430594EA65
:10038000050F08BF90EA020F1FBF54EA000C55EAA0
:10039000020C7FEA645C7FEA655C00F0E2804FEA71
:1003A0005454D4EB5555B8BF6D420CDD2C4480EA53
:1003B000020281EA030382EA000083EA010180EA83
:1003C000020281EA0303362D88BF30BD11F0004FD1
:1003D0004FEA01314FF4801C4CEA113102D0404207
:1003E00061EB410113F0004F4FEA03334CEA133342
:1003F00002D0524263EB430394EA050F00F0A7805A
:10040000A4F10104D5F1200E0DDB02FA0EFC22FA54
:1004100005F2801841F1000103FA0EF2801843FA48
:1004200005F359410EE0A5F120050EF1200E012A39
:1004300003FA0EFC28BF4CF0020C43FA05F3C01877
:1004400051EBE37101F0004507D54FF0000EDCF1F0
:10045000000C7EEB00006EEB0101B1F5801F1BD399
:10046000B1F5001F0CD349085FEA30004FEA3C0C9D
:1004700004F101044FEA445212F5800F80F09A8093
:10048000BCF1004F08BF5FEA500C50F1000041EB97
:10049000045141EA050130BD5FEA4C0C404141EB9B
:1004A0000101013C28BFB1F5801FE9D291F0000F96
:1004B00004BF01460020B1FA81F308BF2033A3F145
:1004C0000B03B3F120020CDA0C3208DD02F1140C3C
:1004D000C2F10C0201FA0CF021FA02F10CE002F177
:1004E0001402D8BFC2F1200C01FA02F120FA0CFC70
:1004F000DCBF41EA0C019040E41AA2BF01EB0451B9
:10050000294330BD6FEA04041F3C1CDA0C340EDCB6
:1005100004F11404C4F1200220FA04F001FA02F3F9
:1005200040EA030021FA04F345EA030130BDC4F1B7
:100530000C04C4F1200220FA02F001FA04F340EAAC
:100540000300294630BD21FA04F0294630BD94F05D
:10055000000F83F4801306BF81F480110134013D44
:100560004EE77FEA645C18BF7FEA655C29D094EAB5
:10057000050F08BF90EA020F05D054EA000C04BF33
:100580001946104630BD91EA030F1EBF002100201E
:1005900030BD5FEA545C05D14000494128BF41F0BD
:1005A000004130BD14F580043CBF01F5801130BD21
:1005B00001F0004545F0FE4141F470014FF00000AC
:1005C00030BD7FEA645C1ABF194610467FEA655C5D
:1005D0001CBF0B46024650EA013406BF52EA0335FF
:1005E00091EA030F41F4002130BD00BF90F0000FED
:1005F00004BF0021704730B54FF4806404F1320429
:100600004FF000054FF0000150E700BF90F0000FE1
:1006100004BF0021704730B54FF4806404F1320408
:1006200010F0004548BF40424FF000013EE700BFD8
:1006300042004FEAE2014FEA31014FEA02701FBF68
:1006400012F07F4393F07F4F81F06051704732F09A
:100650007F4208BF704793F07F4F04BF41F40021F1
:10066000704730B54FF4607401F0004521F000414F
:100670001CE700BF50EA010208BF704730B54FF0D9
:1006800000050AE050EA010208BF704730B511F0DA
:10069000004502D5404261EB41014FF4806404F112
:1006A00032045FEA915C3FF4D8AE4FF003025FEA98
:1006B000DC0C18BF03325FEADC0C18BF033202EB1C
:1006C000DC02C2F1200300FA03FC20FA02F001FA76
:1006D00003FE40EA0E0021FA02F11444BDE600BF19
:1006E00080F0004002E000BF81F0004142001FBFE7
:1006F0005FEA410392EA030F7FEA226C7FEA236CF0
:100700006AD04FEA1262D2EB1363C1BFD2184140E4
:1007100048404140B8BF5B42192B88BF704710F07A
:10072000004F40F4000020F07F4018BF404211F01D
:10073000004F41F4000121F07F4118BF494292EA85
:10074000030F3FD0A2F1010241FA03FC10EB0C00B1
:10075000C3F1200301FA03F100F0004302D549423E
:1007600060EB4000B0F5000F13D3B0F1807F06D3EB
:1007700040084FEA310102F10102FE2A51D2B1F1E3
:10078000004F40EBC25008BF20F0010040EA0300D8
:100790007047490040EB0000013A28BFB0F5000F58
:1007A000EDD2B0FA80FCACF1080CB2EB0C0200FA0E
:1007B0000CF0AABF00EBC25052421843BCBFD0405D
:1007C0001843704792F0000F81F4000106BF80F4D7
:1007D00000000132013BB5E74FEA41037FEA226C9A
:1007E00018BF7FEA236C21D092EA030F04D092F065
:1007F000000F08BF0846704790EA010F1CBF002099
:10080000704712F07F4F04D1400028BF40F00040F5
:10081000704712F100723CBF00F50000704700F015
:10082000004343F0FE4040F4000070477FEA22623C
:1008300016BF08467FEA23630146420206BF5FEA0D
:10084000412390EA010F40F4800070474FF000030D
:1008500004E000BF10F0004348BF40425FEA000CD4
:1008600008BF704743F0964301464FF000001CE07C
:1008700050EA010208BF70474FF000030AE000BFD2
:1008800050EA010208BF704711F0004302D5404210
:1008900061EB41015FEA010C02BF84460146002082
:1008A00043F0B64308BFA3F18053A3F50003BCFA9D
:1008B0008CF2083AA3EBC25310DB01FA02FC63444A
:1008C00000FA02FCC2F12002BCF1004F20FA02F251
:1008D00043EB020008BF20F00100704702F1200244
:1008E00001FA02FCC2F1200250EA4C0021FA02F2A5
:1008F00043EB020008BF20EADC7070474FF0FF3C7A
:1009000006E000BF4FF0010C02E000BF4FF0010C09
:100910004DF804CD4FEA40024FEA41037FEA226CD2
:1009200018BF7FEA236C11D001B052EA530C18BFF4
:1009300090EA010F58BFB2EB030088BFC81738BF59
:100940006FEAE17018BF40F0010070477FEA226C47
:1009500002D15FEA402C05D17FEA236CE4D15FEA43
:10096000412CE1D05DF8040B704700BF8446084677
:100970006146FFE70FB5FFF7C9FF002848BF10F138
:10098000000F0FBD4DF808EDFFF7F4FF0CBF01207D
:1009900000205DF808FB00BF4DF808EDFFF7EAFF07
:1009A00034BF012000205DF808FB00BF4DF808EDC2
:1009B000FFF7E0FF94BF012000205DF808FB00BFB7
:1009C0004DF808EDFFF7D2FF94BF012000205DF83D
:1009D00008FB00BF4DF808EDFFF7C8FF34BF01204A
:1009E00000205DF808FB00BF4FEA4002B2F1FE4F65
:1009F0000FD34FF09E03B3EB12620DD94FEA0023E1
:100A000043F0004310F0004F23FA02F018BF4042B9
:100A100070474FF00000704712F1610F01D14202A0
:100A200005D110F0004008BF6FF0004070474FF054
:100A30000000704742000ED2B2F1FE4F0BD34FF0D0
:100A40009E03B3EB126209D44FEA002343F0004344
:100A500023FA02F070474FF00000704712F1610F67
:100A600001D1420202D14FF0FF3070474FF0000039
:100A7000704700BF53B94AB9002908BF00281CBFFE
:100A80004FF0FF314FF0FF3000F074B9ADF1080CBA
:100A90006DE904CE00F006F8DDF804E0DDE902239C
:100AA00004B070472DE9F047089E0D46044688467D
:100AB000002B4DD18A42944668D9B2FA82F252B1E3
:100AC00001FA02F3C2F1200120FA01F10CFA02FC52
:100AD00041EA030894404FEA1C45210CB8FBF5FE9F
:100AE0001FFA8CF705FB1E8341EA03430EFB07F157
:100AF00099420BD91CEB03030EF1FF3080F01E81ED
:100B0000994240F21B81AEF1020E63445B1AA4B21B
:100B1000B3FBF5F005FB103344EA034400FB07F791
:100B2000A7420AD91CEB040400F1FF3380F00881CE
:100B3000A74240F2058164440238E41B40EA0E40BB
:100B400000211EB1D4400023C6E90043BDE8F08770
:100B50008B4208D9002E00F0EE800021C6E9000586
:100B60000846BDE8F087B3FA83F100294AD1AB42C9
:100B700002D3824200F2F980841A65EB030301205C
:100B80009846002EE2D0C6E90048DFE702B9FFDE52
:100B9000B2FA82F2002A40F09180A1EB0C054FEAF4
:100BA0001C471FFA8CFE0121B5FBF7F307FB13501E
:100BB000250C45EA00450EFB03F0A84208D91CEBC2
:100BC000050503F1FF3802D2A84200F2CB8043466C
:100BD0002D1AA4B2B5FBF7F007FB105544EA054403
:100BE0000EFB00FEA64508D91CEB040400F1FF35FE
:100BF00002D2A64500F2BB802846A4EB0E0440EAD0
:100C000003409EE7C1F120078B4022FA07FC4CEA23
:100C1000030C20FA07F405FA01F31C43FD404FEAE8
:100C20001C4900FA01F3B5FBF9F8200C1FFA8CFE01
:100C300009FB185540EA054508FB0EF0A84202FAE8
:100C400001F20BD91CEB050508F1FF3A80F0888012
:100C5000A84240F28580A8F1020865442D1AA4B28A
:100C6000B5FBF9F009FB105544EA054500FB0EFE03
:100C7000AE4508D91CEB050500F1FF346CD2AE453A
:100C80006AD90238654440EA0840A0FB0294A5EB0B
:100C90000E05A542C846A64656D353D05EB1B3EB67
:100CA000080265EB0E0505FA07F722FA01F3CD40BD
:100CB0001F43C6E900750021BDE8F087C2F120039B
:100CC00020FA03F10CFA02FC25FA03F395400D43D8
:100CD0004FEA1C471FFA8CFEB3FBF7F107FB1130FC
:100CE0002B0C43EA004301FB0EF0984204FA02F495
:100CF00008D91CEB030301F1FF382FD298422DD9FC
:100D0000023963441B1AADB2B3FBF7F007FB103393
:100D100045EA034500FB0EF3AB4208D91CEB050581
:100D200000F1FF3816D2AB4214D902386544ED1AEF
:100D300040EA014138E73146304607E78646E5E6B6
:100D40001846FAE64B45A9D2B9EB020864EB0C0E43
:100D50000138A3E74046EAE7204694E74146D1E759
:100D6000D0467BE7023B654432E7084609E7644426
:100D7000023842E7704700BF844641EA000313F09F
:100D800003036DD1403A41D351F8043B40F8043B92
:100D900051F8043B40F8043B51F8043B40F8043B55
:100DA00051F8043B40F8043B51F8043B40F8043B45
:100DB00051F8043B40F8043B51F8043B40F8043B35
:100DC00051F8043B40F8043B51F8043B40F8043B25
:100DD00051F8043B40F8043B51F8043B40F8043B15
:100DE00051F8043B40F8043B51F8043B40F8043B05
:100DF00051F8043B40F8043B51F8043B40F8043BF5
:100E000051F8043B40F8043B403ABDD2303211D394
:100E100051F8043B40F8043B51F8043B40F8043BD4
:100E200051F8043B40F8043B51F8043B40F8043BC4
:100E3000103AEDD20C3205D351F8043B40F8043B94
:100E4000043AF9D2043208D0D2071CBF11F8013B92
:100E500000F8013B01D30B8803806046704700BF58
:100E6000082A13D38B078DD010F003038AD0C3F167
:100E70000403D21ADB071CBF11F8013B00F8013B49
:100E800080D331F8023B20F8023B7BE7043AD9D308
:100E9000013A11F8013B00F8013BF9D20B780370DD
:100EA0004B7843708B788370604670470000000079
:100EB0000000000000000000000000000000000032
:100EC00090F800F06DE9024520F007016FF0000C8A
:100ED00010F0070491F820F040F049804FF0000432
:100EE0006FF00700D1E9002391F840F000F108000D
:100EF00082FA4CF2A4FA8CF283FA4CF3A2FA8CF345
:100F00004BBBD1E9022382FA4CF200F10800A4FAAB
:100F10008CF283FA4CF3A2FA8CF3E3B9D1E90423FF
:100F200082FA4CF200F10800A4FA8CF283FA4CF336
:100F3000A2FA8CF37BB9D1E9062301F1200182FAF0
:100F40004CF200F10800A4FA8CF283FA4CF3A2FAF6
:100F50008CF3002BC6D0002A04BF04301A4612BA04
:100F6000B2FA82F2FDE8024500EBD2007047D1E907
:100F7000002304F00305C4F100004FEAC50514F096
:100F8000040F91F840F00CFA05F562EA05021CBF67
:100F900063EA050362464FF00004A9E70000000081
:100FA00001F0FF01102A2BDB10F0070F08D010F81A
:100FB000013B013A8B422DD010F0070F42B3F6D11E
:100FC000F0B441EA012141EA014122F007047FF037
:100FD00000070023F0E80256083C85EA010586EA8E
:100FE000010685FA47F5A3FA87F586FA47F6A5FACA
:100FF00087F68EB9EED1F0BC01F0FF0102F00702D6
:1010000032B110F8013B013A83EA010313B1F8D180
:101010000020704701387047002D06BF3546033861
:10102000073815F0010F07D1013015F4807F02BF9A
:10103000013015F4C03F0130F0BC0138704700BFEB
:1010400070B54FF0FF0C4CF4E06C1CEA11541DBF5E
:101050001CEA135594EA0C0F95EA0C0F00F0DEF829
:101060002C4481EA030621EA4C5123EA4C5350EA0E
:10107000013518BF52EA033541F4801143F480135F
:1010800038D0A0FB02CE4FF00005E1FB02E506F0F0
:101090000042E0FB03E54FF00006E1FB03569CF045
:1010A000000F18BF4EF0010EA4F1FF04B6F5007F4B
:1010B00064F5407404D25FEA4E0E6D4146EB0606BD
:1010C00042EAC62141EA55514FEAC52040EA5E5046
:1010D0004FEACE2EB4F1FD0C88BFBCF5E06F1ED8F0
:1010E000BEF1004F08BF5FEA500E50F1000041EB27
:1010F000045170BD06F0004646EA010140EA0200D4
:1011000081EA0301B4EB5C04C2BFD4EB0C0541EAF5
:10111000045170BD41F480114FF0000E013C00F30A
:10112000AB8014F1360FDEBF002001F0004170BD2E
:10113000C4F10004203C35DA0C341BDC04F1140447
:10114000C4F1200500FA05F320FA04F001FA05F2D3
:1011500040EA020001F0004221F0004110EBD370A0
:1011600021FA04F642EB06015EEA430E08BF20EACC
:10117000D37070BDC4F10C04C4F1200500FA04F36F
:1011800020FA05F001FA04F240EA020001F0004101
:1011900010EBD37041F100015EEA430E08BF20EA74
:1011A000D37070BDC4F1200500FA05F24EEA020EBC
:1011B00020FA04F301FA05F243EA020321FA04F0EB
:1011C00001F0004121FA04F220EA020000EBD370A2
:1011D0005EEA430E08BF20EAD37070BD94F0000FA2
:1011E0000FD101F00046400041EB010111F4801FD6
:1011F00008BF013CF7D041EA060195F0000F18BF87
:10120000704703F00046520043EB030313F4801FC2
:1012100008BF013DF7D043EA0603704794EA0C0F7C
:101220000CEA135518BF95EA0C0F0CD050EA410692
:1012300018BF52EA4306D1D181EA030101F000410F
:101240004FF0000070BD50EA410606BF1046194637
:1012500052EA430619D094EA0C0F02D150EA013643
:1012600013D195EA0C0F05D152EA03361CBF104684
:1012700019460AD181EA030101F0004141F0FE4123
:1012800041F470014FF0000070BD41F0FE4141F4A7
:10129000780170BD70B54FF0FF0C4CF4E06C1CEAA7
:1012A00011541DBF1CEA135594EA0C0F95EA0C0F5C
:1012B00000F0A7F8A4EB050481EA030E52EA033517
:1012C0004FEA013100F088804FEA03334FF0805538
:1012D00045EA131343EA12634FEA022245EA111565
:1012E00045EA10654FEA00260EF000419D4208BF16
:1012F000964244F1FD0404F5407402D25B084FEAC3
:101300003202B61A65EB03055B084FEA32024FF46E
:1013100080104FF4002CB6EB020E75EB030E22BFCB
:10132000B61A754640EA0C005B084FEA3202B6EB8B
:10133000020E75EB030E22BFB61A754640EA5C003A
:101340005B084FEA3202B6EB020E75EB030E22BFCA
:10135000B61A754640EA9C005B084FEA3202B6EBCB
:10136000020E75EB030E22BFB61A754640EADC008A
:1013700055EA060E18D04FEA051545EA16754FEAEC
:1013800006164FEAC30343EA52734FEAC2025FEA0A
:101390001C1CC0D111F4801F0BD141EA00014FF099
:1013A00000004FF0004CB6E711F4801F04BF01436A
:1013B0000020B4F1FD0C88BFBCF5E06F3FF6AFAE86
:1013C000B5EB030C04BFB6EB020C5FEA500C50F116
:1013D000000041EB045170BD0EF0004E4EEA113199
:1013E00014EB5C04C2BFD4EB0C0541EA045170BDA0
:1013F00041F480114FF0000E013C90E645EA060EE4
:101400008DE60CEA135594EA0C0F08BF95EA0C0F11
:101410003FF43BAF94EA0C0F0AD150EA01347FF459
:1014200034AF95EA0C0F7FF425AF104619462CE730
:1014300095EA0C0F06D152EA03353FF4FDAE104693
:10144000194622E750EA410618BF52EA43067FF4E4
:10145000C5AE50EA41047FF40DAF52EA43057FF474
:10146000EBAE12E74FF0FF3C06E000BF4FF0010C7F
:1014700002E000BF4FF0010C4DF804CD4FEA410CE3
:101480007FEA6C5C4FEA430C18BF7FEA6C5C1BD0B0
:1014900001B050EA410C0CBF52EA430C91EA030F31
:1014A00002BF90EA020F0020704710F1000F91EA8E
:1014B000030F58BF994208BF90422CBFD8176FEA5C
:1014C000E37040F0010070474FEA410C7FEA6C5C2A
:1014D00002D150EA013C07D14FEA430C7FEA6C5C31
:1014E000D6D152EA033CD3D05DF8040B704700BF5D
:1014F0008446104662468C461946634600E000BFAB
:1015000001B5FFF7B7FF002848BF10F1000F01BD7C
:101510004DF808EDFFF7F4FF0CBF012000205DF847
:1015200008FB00BF4DF808EDFFF7EAFF34BF0120CC
:1015300000205DF808FB00BF4DF808EDFFF7E0FF65
:1015400094BF012000205DF808FB00BF4DF808EDB6
:10155000FFF7CEFF94BF012000205DF808FB00BF1D
:101560004DF808EDFFF7C4FF34BF012000205DF8FF
:1015700008FB00BF4FEA410C7FEA6C5C02D150EAE5
:10158000013C0AD14FEA430C7FEA6C5C02D152EA7B
:10159000033C02D14FF0000070474FF0010070474C
:1015A0004FEA410212F5001215D211D56FF478738B
:1015B000B3EB625212D94FEAC12343F0004343EA2E
:1015C000505311F0004F23FA02F018BF4042704709
:1015D0004FF00000704750EA013005D111F0004093
:1015E00008BF6FF0004070474FF00000704700BF29
:1015F0004A0011D212F5001211D20DD56FF4787392
:10160000B3EB62520ED44FEAC12343F0004343EAE6
:10161000505323FA02F070474FF00000704750EA31
:10162000013002D14FF0FF3070474FF0000070479B
:101630004FEA4102B2F1E04324BFB3F5001CDCF1F4
:10164000FE5C0DD901F0004C4FEAC0024CEA50702C
:10165000B2F1004F40EB830008BF20F0010070475B
:1016600011F0804F21D113F13872BCBF01F000405E
:10167000704741F480114FEA5252C2F11802C2F190
:10168000200C10FA0CF320FA02F018BF40F0010011
:101690004FEAC1234FEAD32303FA0CFC40EA0C00C3
:1016A00023FA02F34FEA4303CCE77FEA625307D100
:1016B00050EA01331EBF4FF0FE4040F44000704737
:1016C00001F0004040F0FE4040F40000704700BFD1
:1016D0004FEA40024FEA41037FEA226C02D15FEAFF
:1016E000402C08D17FEA236C02D15FEA412C02D161
:1016F0004FF0000070474FF00100704738B50546C5
:101700000C462846214600220023FFF70BFF28B98C
:1017100028462146BDE8384000F00AB8284604F1C2
:10172000004100F005F8404261EB410138BD00BFC7
:10173000D0B50C4B002206460F46FFF781FCFFF7A1
:1017400057FF0446FEF752FF074B0022FFF778FCD5
:1017500002460B4630463946FEF70AFEFFF748FFC1
:101760002146D0BD0000F03D0000F04108B50D4815
:101770000D4B03600323436000238360C3604FF479
:10178000102202614FF400124261037643768376A1
:10179000C3760377437700F061FF00B908BD00F01E
:1017A0003FF9FBE7DC0900200064004008B50D4864
:1017B0000D4B03600323436000238360C3604FF439
:1017C000102202614FF40012426103764376837661
:1017D000C3760377437700F041FF00B908BD00F0FE
:1017E0001FF9FBE7040A00200068004010B58AB02A
:1017F00000230593069307930893099303683E4AD1
:10180000934204D03D4A934234D00AB010BD3C4AC2
:10181000136801331360012B1FD000240194394B4E
:101820001A6B42F008021A631B6B03F00803019362
:10183000019B03230593022206920893092309932F
:1018400005A9314801F0B8FD22460121142001F01C
:10185000F5FA142001F02AFBD7E700230093294B67
:101860001A6C42F000721A641B6C03F00073009350
:10187000009BD2E700230293224B1A6C42F0806255
:101880001A641B6C03F080630293029B1C4A13686A
:1018900001331360012B21D000240494194B1A6BDF
:1018A00042F002021A631B6B03F002030493049BD1
:1018B0004FF440530593022306930323089309230F
:1018C000099305A9114801F077FD22460121402026
:1018D00001F0B4FA402001F0E9FA96E700230393FF
:1018E000084B1A6C42F000721A641B6C03F0007310
:1018F0000393039BD0E700BF0064004000680040F2
:10190000D809002000380240000C024000040240C8
:1019100010B582B0002401940D4B1A6B42F4800282
:101920001A631B6B03F480030193019B224621463B
:10193000392001F083FA392001F0B8FA2246214615
:10194000452001F07BFA452001F0B0FA02B010BD4D
:101950000038024070B58AB00024059406940794BC
:101960000894099400942B4B1A6B42F040021A63BE
:101970001A6B02F040020092009A01941A6B42F036
:1019800001021A631A6B02F001020192019A029499
:101990001A6B42F008021A631A6B02F008020292F4
:1019A000029A03941A6B42F080021A631A6B02F0D7
:1019B00080020392039A04941A6B42F002021A63A3
:1019C0001B6B03F002030493049B134E22463C213D
:1019D000304601F0EFFD3C23059301250695079461
:1019E000089405A9304601F0E7FC042305934FF461
:1019F00088130693079505A9084801F0DDFC2246E7
:101A00000321082001F01AFA082001F04FFA0AB069
:101A100070BD00BF00380240001C024000040240BC
:101A200072B6FEE700B595B03022002108A803F099
:101A30005DF80023039304930593069307930193A2
:101A4000204A116C41F080511164126C02F08052F6
:101A50000192019A02931C4B1A6842F440421A60A8
:101A60001B6803F440430293029B012308934FF445
:101A70008033099302230E934FF480020F920622C3
:101A80001092A822119212930423139308A801F034
:101A9000A5FD98B90F230393022304930023059314
:101AA0004FF4A05306934FF480530793052103A8E6
:101AB00001F0E2FF20B915B05DF804FBFFF7B0FFBD
:101AC000FFF7AEFF003802400070004008B500F09C
:101AD00085FDFFF7A7FFFFF73DFFFFF719FFFFF7B2
:101AE00045FEFFF763FE00F0DFF800F037F9094824
:101AF00002F0C6F800F0BAFA074800F00BFA0748FF
:101B000000F008FA00F0ECF90A2000F093FD00F074
:101B1000E5FBFEE7300A0020DC090020040A002073
:101B200082B0002100910B4B5A6C42F480425A64FF
:101B30005A6C02F480420092009A01911A6C42F0B1
:101B400080521A641B6C03F080530193019B02B016
:101B5000704700BF00380240FEE7FEE7FEE7FEE701
:101B6000FEE770477047704708B500F051FD08BDAB
:101B700008B5042001F024FD08BD000008B50248A6
:101B800001F025F808BD00BFDC09002008B50248B7
:101B900002F0BEF808BD00BF300A002008B50248B8
:101BA00001F01CFB08BD00BF780A002008B5024800
:101BB00001F00DF808BD00BF040A002008B5024876
:101BC00001F00CFB08BD00BFD80A002010B5054C81
:101BD000204602F059FD204600F056FB204600F05A
:101BE00071FA10BD380B00200120704708B502F0D3
:101BF00053FF162303604FF0FF3008BD08B54FF0C8
:101C0000FF31FFF7F3FFFEE770B50C4616460025DF
:101C100006E0AFF30080214601F8010B01350C46C8
:101C2000B542F6DB304670BD70B50C461646002551
:101C300004E014F8010BAFF300800135B542F8DB86
:101C4000304670BD4FF0FF3070474FF400534B608B
:101C500000207047012070470020704710B50346F0
:101C60000C4A0D490D48006840B10C480068034417
:101C7000521A934206D8094A136010BD0748084C0F
:101C80000460F2E702F008FF0C2303604FF0FF301E
:101C9000F3E700BF00000320000400002C0A00202E
:101CA000B81100207047000000B587B000230293F0
:101CB000039304930593009301931648164A026018
:101CC00040F247324260836040F2E732C260036113
:101CD0008023836102F03EF990B94FF48053029360
:101CE00002A90C4802F06EF968B900230093019331
:101CF0006946084802F0E6F940B907B05DF804FB10
:101D0000FFF78EFEE9E7FFF78BFEEEE7FFF788FEB1
:101D1000F3E700BF300A0020000C004002680E4BC1
:101D20009A4200D0704700B583B00022019203F5BB
:101D30000B33196C41F0080119641B6C03F00803A4
:101D40000193019B0221322001F078F8322001F04A
:101D5000ADF803B05DF804FB000C004008B50A487C
:101D60000A4B03604FF4E133436000238360C36098
:101D700003610C2242618361C36102F0E1FA00B9A0
:101D800008BDFFF74DFEFBE7380B002000140140B3
:101D900030B589B00023039304930593069307930A
:101DA0000268344B9A4201D009B030BD0446002588
:101DB000019503F592335A6C42F020025A645A6C32
:101DC00002F020020192019A02951A6B42F0400241
:101DD0001A631B6B03F040030293029B4FF484438E
:101DE000039302230493032306930823079303A971
:101DF000214801F0E1FA2148214B03604FF02063B4
:101E000043608560C5604FF480630361456185610F
:101E10004FF48073C3610562456201F0E7F818BBB7
:101E2000164BA3639C631748174B03604FF0206366
:101E30004360402383600023C3604FF480620261EB
:101E400043618361C3610362436201F0CFF870B9FB
:101E50000C4B63639C6300221146472000F0EEFFA9
:101E6000472001F023F89FE7FFF7DAFDD8E7FFF7F7
:101E7000D7FDEDE70014014000180240780A002069
:101E800028640240D80A0020A0640240DFF834D061
:101E90000D480E490E4A002302E0D458C4500433C2
:101EA000C4188C42F9D30B4A0B4C002301E0136099
:101EB0000432A242FBD3FFF7F5FE02F0F3FDFFF779
:101EC00005FE70470000032000000020BC09002030
:101ED00068CB0008BC090020B4110020FEE7000018
:101EE00010B50B4C01220421204601F063FB0122B6
:101EF0000821204601F05EFB01221021204601F05E
:101F000059FB01222021204601F054FB10BD00BFE7
:101F1000001C024010B58AB004460122089200233A
:101F2000069307920093019302930393049303682B
:101F30000E4A934214D00E4A934214D0694620466A
:101F400000F032FC204600F0CDFC0221204600F0DB
:101F500020FE2268536943F0020353610AB010BDAA
:101F600000230593EAE70E230593E7E700640040AA
:101F70000068004000B5B0F808C0A0F80AC00A78B0
:101F80004B7843EA022303818A78120212B291F855
:101F900003E042EA0E0202800A79120212B291F8BC
:101FA00005E042EA0E0242808A798271A3EB0C0CB2
:101FB000BCF5805F08DDC268013AC260C26803EB0D
:101FC000423303615DF804FB1CF5805FF6DAC268FA
:101FD0000132C260F2E7000010B58AB0044601ABDE
:101FE00003AA002100F02AFD0D4B9C4204D00D4BAA
:101FF0009C4206D00AB010BD01A90B48FFF7BAFFFA
:10200000F8E703980630C0B2084B187000EB800068
:1020100001A9074B03EB8000FFF7ACFFEAE700BF25
:10202000DC090020040A0020B80C0020B40C0020B9
:102030009C0B002000B583B00B460A494FF4007298
:102040000A6000228A60CA6008220A61064A4FEAD2
:10205000132C82F800C0537001AB00F071FC03B088
:102060005DF804FB840B00207C0B002008B50548BC
:102070000268D36843F01003D360FF22024902F0E4
:10208000EFFC08BD380B0020080E00200FB410B57F
:1020900082B004AB53F8042B0193084C4FF4007149
:1020A000204603F05DFD82B22146054802F078F932
:1020B00002B0BDE8104004B0704700BF0C0F002014
:1020C000380B002070B5054602F0B8F9694A6A4B32
:1020D000D2F80500D2F8091003C3B2F80D10198028
:1020E000AB6B1B685C68E4B2E443E4B253793A2B0F
:1020F00019D03A2B1ED05F4B1B78702B28D0732B36
:1021000079D15C4BDB78613B152B21D8DFE803F0FC
:102110004920203920202020322020202020401A51
:102120002020645B20529279312AE2D1534B012264
:102130001A80E0E74F4B9B79302BDCD14F4B0022CC
:102140001A80D8E74E494C4803F0BAFC4D4B186052
:10215000484BDB78613B152B4DD8DFE803F06F4C23
:102160004C5F4C4C4C4C584C4C4C4C4C66464C4C7C
:10217000784C4C814249404803F0A2FC414B5860E6
:10218000E6E73F493C4803F09BFC3E4B9860DFE7A5
:102190003B49394803F094FCFEF726FC394BD860E4
:1021A000D6E73749344803F08BFCFEF71DFC354B6E
:1021B0001861CDE73249304803F082FCFEF714FC89
:1021C000304B5861C4E72E492B4803F079FCFEF7E9
:1021D0000BFC2C4B9861BBE72949274803F070FCA6
:1021E000FEF702FC274BD861B2E72549224803F0ED
:1021F00067FC244B18621F4E22460021304602F035
:1022000075FCFF223146284602F02AFC70BD1C49AD
:10221000194803F055FC1B4B5862ECE71849164867
:1022200003F04EFC174B9862E5E71549124803F09E
:1022300047FCFEF7D9FB134BD862DCE710490E4888
:1022400003F03EFCFEF7D0FB0E4B1863D3E70C49BE
:10225000094803F035FCFEF7C7FB0A4B5863CAE791
:102260000749054803F02CFCFEF7BEFB054B9863BD
:10227000C1E700BF080E0020CC0C00200C1100208C
:10228000080F0020CC0D002003680B4A934200D0B9
:1022900070471A6812F0100FFAD000B583B0002210
:1022A00001921A6801925B680193019BFFF70AFF94
:1022B00003B05DF804FB00BF00140140042800D007
:1022C0007047054B1B681BB1034B00221A60704717
:1022D000014B01221A60F3E76411002008B502489F
:1022E00000F024F908BD00BF10110020F0B587B040
:1022F0001E4C1F4B23601F4B63601F4BA3601F4B83
:1023000063621F4BB3F90000FEF7A4FA01462046B2
:1023100000F048F8204600F0BBF81A4B1B68012B70
:102320001BD00022E261114B154AB2F900605F6ACE
:10233000D869FEF77DF904460D46124B1B680493DD
:102340003846FEF775F9CDE90201009622462B4684
:102350000D48FFF79BFE07B0F0BD044BD869FEF7B0
:1023600069FB81B20948FFF765FEDCE71011002028
:102370009A99D93F8FC2F53D8FC2F53C0000E443E6
:10238000B80C00206411002048C50008DC090020BA
:1023900008B5034B834200D008BDFFF7A7FFFBE75A
:1023A000300A0020F8B504460D46816290F82C30C2
:1023B000012B24D023696361E36823612946606AA5
:1023C000FEF792F90546E060666C3146FEF7E4FAE6
:1023D00038B106F100412846FEF7FCFA08B10023A7
:1023E000E360A169E068FEF781F90546A061A66C8B
:1023F0003146FEF7EFFA002840D0A661F8BD466BE3
:10240000816B3046FEF7C8FA30B14FF07E5130464E
:10241000FEF76CF96063CDE700236363676A266BA0
:1024200031463846FEF7B8FA78B1E16B3846FEF728
:102430005DF9014660623046FEF7B8FA0028B9D06F
:102440006662002384F82C30B4E731463846FEF744
:10245000C1FA78B1E16B3846FEF746F90146606291
:102460003046FEF7ADFA0028A4D06662002384F857
:102470002C309FE7002384F82C309BE706F10046C0
:1024800031462846FEF788FA0028B7D0A661B5E79E
:10249000F8B50446C66831460068FDF7B1FE05464A
:1024A000A76821693046FEF71FF901463846FDF757
:1024B000A7FE01462846FEF719F90546E061616866
:1024C000A069FDF79DFE01462846FEF70FF9E06181
:1024D000E56C2946FEF774FA00B1E56105F10045A7
:1024E0002946E069FEF762FA00B1E561256A2946EE
:1024F000E069FEF7F9F8266D3146FEF76BFA20B178
:1025000031462846FEF7F2F8E0612946E069FEF719
:10251000EBF806F10041FEF73FFA20B131462846BC
:10252000FEF7E2F8E061E0692062F8BD124B03605B
:10253000124B436000238360C36003614361836186
:10254000C361036243628362002280F82C2003632C
:1025500043634FF07E5181630949C163012180F8D3
:10256000401080F841204364064B8364064BC364EB
:10257000064B0365704700BF00002041CDCCCC3D29
:102580000000704100803B4500401F4600804745E9
:1025900010B504460E4B18784FF47A73B3FBF0F382
:1025A0000C4A1068B0FBF3F000F08EFC68B90F2CF9
:1025B00001D901200AE0002221464FF0FF3000F04F
:1025C0003DFC054B1C60002000E0012010BD00BF59
:1025D00004000020000000200800002008B50B4B7C
:1025E0001A6842F400721A601A6842F480621A6033
:1025F0001A6842F480721A60032000F00DFC0F206C
:10260000FFF7C6FFFFF78CFA002008BD003C024030
:10261000034A1168034B1B780B441360704700BFDB
:102620006811002004000020014B1868704700BFAB
:102630006811002038B50446FFF7F6FF0546B4F1EF
:10264000FF3F02D0044B1B781C44FFF7EDFF401BFB
:10265000A042FAD338BD00BF04000020002800F0DB
:10266000A18038B5044690F82030D3B122681368B1
:1026700043F001031360FFF7D7FF054623685A684C
:1026800012F0010F10D1FFF7CFFF401B0A28F5D938
:10269000636A43F400336362052384F82030012029
:1026A00038BDFFF7A3F8E1E71A6822F002021A60CA
:1026B000FFF7BAFF054623685A6812F0020F0DD0E3
:1026C000FFF7B2FF401B0A28F5D9636A43F40033D1
:1026D0006362052384F820300120E1E7227E012A8D
:1026E0003DD01A6822F080021A60637E012B3BD035
:1026F0002268136823F040031360A37E012B39D0B6
:102700002268136823F020031360E37E012B37D087
:102710002268136843F010031360237F012B35D028
:102720002268136823F008031360637F012B33D002
:102730002268136823F004031360A368E26813435C
:1027400022691343626913436268013A21681343A3
:10275000CB6100206062012384F82030A0E71A6872
:1027600042F080021A60C0E72268136843F0400319
:102770001360C2E72268136843F020031360C4E7C4
:102780002268136823F010031360C6E722681368F9
:1027900043F008031360C8E72268136843F004039A
:1027A0001360CAE70120704790F82030013BDBB28C
:1027B000012B05D9436A43F480234362012070470B
:1027C00010B5474BD3F8002242F00102C3F80022B3
:1027D000D3F8002222F47C52C3F80022D3F800225E
:1027E000486A42EA0022C3F800224A6902F01F0246
:1027F000012000FA02F2D3F81C026FEA020C20EA70
:102800000200C3F81C02CB69CBB9354BD3F80C02DC
:102810000CEA0000C3F80C028C884869D1F80CE07F
:1028200044EA0E44483043F830408C68088840EA57
:1028300004404C6904F1480E03EBCE035860CB69A9
:10284000012B1ED08B69002B35D12548D0F80432DE
:102850000CEA0303C0F804320B699BBB2048D0F894
:1028600014320CEA0303C0F814320B6A012B30D087
:102870001B4AD2F8003223F00103C2F800320020D4
:1028800010BD174BD3F80C021043C3F80C028C8810
:102890004869D1F800E044EA0E44483043F830403B
:1028A00088894C69D1F808E040EA0E40483403EBCF
:1028B000C4035860C6E70A48D0F804321343C0F88E
:1028C0000432C9E70648D0F814321343C0F8143272
:1028D000CBE70349D1F81C321A43C1F81C22C7E7E1
:1028E0000064004070B5044690F82050EDB2012D10
:1028F00006D0436A43F4002343620125284670BD95
:10290000022380F820300268136823F0010313606B
:10291000FFF78AFE064623685B6813F0010F0CD0B0
:10292000FFF782FE831B0A2BF5D9636A43F4003359
:102930006362052384F82030E0E700256562DDE767
:1029400030B590F820C00468A4680CF1FF3C5FFA31
:102950008CFCBCF1010F6BD814F0E05F62D0C4F3C3
:10296000016CBCF1020F05D9436A43F400034362D2
:10297000012062E0012404FA0CF41C608B68002B37
:102980003DD10D68CB68046843EA45550CF1180346
:102990001B01E55003680C690CF1180E03EB0E13D4
:1029A0005C600B7D012B35D0D17993791B0443EA10
:1029B0000163517943EA012314790168234301EB50
:1029C0000C11C1F88C31D17893781B0443EA016370
:1029D000517843EA0123117802680B4302EB0C1291
:1029E000C2F8883102680CF1180C4FEA0C1C52F83E
:1029F0000C3043F0010342F80C3000201DE04C681D
:102A000043EAC403CC6823430CF11804240105688D
:102A10002B51BFE7036803EB0E13596841F4807133
:102A20005960C1E7436A43F400134362012004E0A4
:102A3000436A43F480234362012030BD90F820C0F4
:102A40000CF1FF3C5FFA8CFCBCF1010F00F29B80A3
:102A500010B451B90468E46814F0030F10D1436A4C
:102A600043F40013436201207BE00468246914F0FE
:102A7000030F05D1436A43F400134362012070E061
:102A800001F11B042401D0F800C05CF8044004F0FC
:102A900004049460002C66D101F11B042401D0F8D9
:102AA00000C05CF80440640D1460046801F11B0C64
:102AB0004FEA0C1C54F80C4004F00204D460046883
:102AC0006444646804F00F04146104686444646836
:102AD000C4F307249461046864446468240C54615A
:102AE000026802EB0112D2F8B8211A70026802EBF8
:102AF0000112D2F8B821C2F307225A70026802EB21
:102B00000112D2F8B821C2F307429A70026802EBB0
:102B10000112D2F8B821120EDA70026802EB01122B
:102B2000D2F8BC211A71026802EB0112D2F8BC2162
:102B3000C2F307225A71026802EB0112D2F8BC21DB
:102B4000C2F307429A71026802EB0112D2F8BC216B
:102B5000120EDA7189B90268D36843F02003D3609A
:102B6000002010BC704701F11B042401D0F800C004
:102B70005CF80440E408546097E70268136943F086
:102B800020031361ECE7436A43F48023436201208E
:102B9000704790F82030013BDBB2012B05D9436A26
:102BA00043F480234362012070470268536919434C
:102BB00051610020704770477047704770477047F9
:102BC00070477047704770477047704770472DE9EE
:102BD000F84F054603685C69D3F804809F68D3F812
:102BE0000CB0D3F810A0D3F8189014F001063BD025
:102BF00017F0010616D001229A6017F0020F08D1D3
:102C000017F0040F0CD117F0080606D04FF48056C9
:102C100008E0FFF7D0FF002604E0FFF7CFFF01E058
:102C20004FF4006617F4807F0DD02B684FF480724C
:102C30009A6017F4007F40F0868017F4806F00F0F0
:102C4000868046F4005617F4803F0DD02B684FF471
:102C500080329A6017F4003F40F0838017F4802F91
:102C600000F0838046F4004614F0080F07D01BF0F4
:102C7000100F04D046F400762B681022DA6014F0AE
:102C8000040F02D01BF0080F79D114F0020F04D00A
:102C90002B68DB6813F0030F78D114F0400F07D0D6
:102CA0001AF0100F04D046F480662B6810221A61C7
:102CB00014F0200F02D01AF0080F6BD114F0100F8F
:102CC00004D02B681B6913F0030F6AD114F4003F82
:102CD00002D018F0100F68D114F4803F02D018F021
:102CE000080F69D114F4004F7AD018F0040F74D093
:102CF00014F4807F04D019F0010F01D046F00106D2
:102D000014F4007F04D019F0020F01D046F002063F
:102D100014F4806F04D019F0040F01D046F00406BB
:102D200014F4006F59D019F0700956D0B9F1400F62
:102D300065D058D8B9F1200F5ED0B9F1300F42D12B
:102D400046F0200644E02846FFF736FF7BE717F4FD
:102D5000006F02D046F4804675E72846FFF72FFF44
:102D600071E72846FFF729FF7EE717F4002F02D00E
:102D700046F4803678E72846FFF722FF74E72B6891
:102D80000822DA602846FFF71CFF7EE72846FFF797
:102D900023F982E72B6808221A612846FFF713FF00
:102DA0008CE72846FFF70EFF90E72B6810225A6049
:102DB0002846FFF709FF8FE72B6808225A6028464C
:102DC000FFF703FF8EE7B9F1100F01D146F00806B7
:102DD0002A68936923F0700393612B6804225A6078
:102DE0009EB9BDE8F88FB9F1500F0BD0B9F1600F63
:102DF000EED146F48076EBE746F01006E8E746F0C1
:102E00004006E5E746F08006E2E76B6A1E436E6225
:102E10002846FFF7DBFEE4E7074AD36823F4E063C4
:102E20001B041B0C000200F4E060034343F0BF638B
:102E300043F40033D360704700ED00E000B5194B58
:102E4000DB68C3F30223C3F1070CBCF1040F28BFF6
:102E50004FF0040C03F1040EBEF1060F18D9033B2A
:102E60004FF0FF3E0EFA0CFC21EA0C0199400EFADD
:102E700003F322EA0303194300280BDB0901C9B25B
:102E800000F1604000F5614080F800135DF804FB3C
:102E90000023E5E700F00F000901C9B2024B195405
:102EA000F4E700BF00ED00E014ED00E0002807DBD0
:102EB00000F01F02400901239340024A42F82030EB
:102EC000704700BF00E100E00138B0F1807F0BD215
:102ED0004FF0E0235861054AF02182F823100020CA
:102EE000986107221A6170470120704700ED00E0E9
:102EF00030B405682C6824F480242C600468636076
:102F00008368402B05D0036899600368DA6030BCA1
:102F1000704703689A600368D960F8E710B40368E3
:102F2000D9B210390B4AA2FB014212090A4CA25C29
:102F3000C2655F2908D923F47F7323F003030433A8
:102F40008365806D10BC704723F47F7323F0030307
:102F50008365F6E7ABAAAAAA58C50008836A826906
:102F600092B9012B0AD0022B02D00BB1002070477E
:102F7000C36A13F0807F28D100207047C36AB3F181
:102F8000C07F24D000207047B2F5005F09D0022B2B
:102F900025D9032B25D1C36A13F0807F23D10020CC
:102FA0007047032B03D8DFE803F01404140A002051
:102FB0007047C36A13F0807F0DD100207047C36A49
:102FC000B3F1C07F09D00020704701207047012075
:102FD0007047012070470120704701207047012091
:102FE00070470020704701207047000070B504460C
:102FF000FFF71AFB002C5BD00546022384F835301E
:10300000002384F834302268136823F0010313602E
:1030100023681A6812F0010F0AD0FFF705FB431B63
:10302000052BF5D920236365032084F8350070BD96
:103030001A68204810406168A2680A43E1680A43A0
:1030400021690A4361690A43A1690A43E1690A43A4
:10305000216A0A430243616A04291ED01A60266865
:10306000756925F00705636A1D43042B07D1A36A20
:103070001D43E36A1BB12046FFF770FF90B97561ED
:103080002046FFF74BFFE26D3F2393408360002013
:103090006065012384F83530C9E7E16A206B01439C
:1030A0000A43DBE740236365012084F83500BEE76F
:1030B0000120BCE73F8010F038B50446856D90F8DC
:1030C000340001282BD0012084F8340094F8350016
:1030D000C0B2012804D0002384F83430022038BD67
:1030E000022084F83500002060652046FFF700FFCD
:1030F000E26D3F239340AB602268136843F01603F0
:103100001360236C23B12268136843F00803136033
:103110002268136843F0010313600020DFE70220F8
:10312000DDE770B50446866DFFF77EFA94F835301A
:10313000DBB2022B06D080236365002384F8343091
:10314000012070BD05462268136823F01603136042
:103150002268536923F080035361236CE3B1226832
:10316000136823F0080313602268136823F0010337
:10317000136023681B6813F0010F11D0FFF754FA96
:10318000431B052BF5D920236365032084F8350004
:10319000002384F83430D4E7A36C002BDFD1E3E7BD
:1031A000E26D3F239340B360012384F83530002063
:1031B00084F83400C5E790F83530DBB2022B03D039
:1031C0008023436501207047052380F8353002686D
:1031D000136823F00103136000207047F0B583B03B
:1031E000044600230193724B1D68724BA3FB053507
:1031F000AD0A876D3E68C26D08239340334210D0FC
:1032000003681A6812F0040F0BD01A6822F0040247
:103210001A60C26D08239340BB60436D43F0010305
:103220004365E26D01239340334209D0226852691D
:1032300012F0800F04D0BB60636D43F0020363653E
:10324000E26D04239340334209D02268126812F0E1
:10325000020F04D0BB60636D43F004036365E26D4D
:1032600010239340334224D02268126812F0080FD2
:103270001FD0BB6023681A6812F4802F0DD01B6822
:1032800013F4002F04D1236C9BB12046984710E023
:10329000A36C73B1204698470BE01A6812F4807F44
:1032A00003D11A6822F008021A60236C0BB1204681
:1032B0009847E26D20239340334255D0226812682C
:1032C00012F0100F50D0BB6094F83530DBB2052BF4
:1032D0000ED023681A6812F4802F33D01B6813F4C1
:1032E000002F2AD1636C002B3ED0204698473BE04C
:1032F0002268136823F0160313602268536923F0D1
:1033000080035361236CA3B12268136823F0080380
:103310001360E26D3F239340BB60012384F8353096
:10332000002384F83430236D002B3FD0204698478B
:103330003CE0A36C002BE7D1EBE7E36BA3B12046A5
:10334000984711E01A6812F4807F09D11A6822F0B8
:1033500010021A60012384F83530002384F83430D9
:10336000E36B0BB120469847636DFBB1636D13F0BF
:10337000010F17D0052384F835302268136823F035
:1033800001031360019B01330193AB4204D823680E
:103390001B6813F0010FF5D1012384F835300023A9
:1033A00084F83430E36C0BB12046984703B0F0BD8D
:1033B00000000020B5814E1B00230F2B00F2F1808E
:1033C00070B582B061E085685E000324B44025EAF0
:1033D0000405CC68B4402C438460456825EA0205A6
:1033E0004C68C4F300129A402A4342605BE0DC0858
:1033F000083450F8246003F0070295000F22AA4019
:1034000026EA020E0A69AA4042EA0E0240F8242087
:103410005DE0092200E0002202FA0EF22A430234A3
:10342000604D45F82420604A94686FEA0C0224EA53
:103430000C054E6816F4801F01D04CEA04055A4C66
:10344000A560E46802EA04054E6816F4001F01D086
:103450004CEA0405544CE560646802EA04054E68D1
:1034600016F4003F01D04CEA04054F4C6560246817
:1034700022404D6815F4803F01D04CEA04024A4CCA
:10348000226001330F2B00F28A8001229A400C68DF
:1034900004EA020C32EA0404F3D14C6804F0030499
:1034A000013C012C8FD94A6802F00302032A09D09B
:1034B000C4685D000322AA4024EA02048A68AA4084
:1034C0002243C2604A6802F00302022A8FD00468D5
:1034D0004FEA430E032202FA0EF224EA02044A687B
:1034E00002F0030202FA0EF2224302604A6812F46A
:1034F000403FC6D0002201922C4A546C44F48044D0
:103500005464526C02F480420192019A9C08A51CFA
:10351000244A52F8255003F003024FEA820E0F228C
:1035200002FA0EF225EA0205214A90423FF473AFF7
:1035300002F58062904222D002F58062904220D053
:1035400002F5806290421ED002F5806290421CD04B
:1035500002F5806290421AD002F58062904218D043
:1035600002F58062904216D002F58062904214D03B
:1035700002F5806290423FF44CAF0A224CE70122F0
:103580004AE7022248E7032246E7042244E70522ED
:1035900042E7062240E707223EE708223CE702B066
:1035A00070BD704700380140003C014000380240C7
:1035B000000002400AB181617047090481617047CF
:1035C00008B5054B5B69034200D108BD024B586149
:1035D000FEF774FEF9E700BF003C0140002800F050
:1035E000E08170B582B00446036813F0010F3BD050
:1035F0009F4B9B6803F00C03042B2CD09C4B9B68C7
:1036000003F00C03082B21D06368B3F5803F4FD043
:10361000B3F5A02F52D0964B1A6822F480321A606C
:103620001A6822F480221A606368002B50D0FEF7DB
:10363000FBFF05468E4B1B6813F4003F14D1FEF7C9
:10364000F3FF401B6428F5D90320B1E1884B5B6888
:1036500013F4800FD8D0864B1B6813F4003F03D0BF
:103660006368002B00F09F81236813F0020F54D091
:103670007F4B9B6813F00C0F3ED07D4B9B6803F093
:103680000C03082B33D0E368002B68D0794B012260
:103690001A60FEF7C9FF0546754B1B6813F0020F51
:1036A00054D1FEF7C1FF401B0228F5D903207FE16A
:1036B0006F4A136843F480331360B5E76C4B1A68A4
:1036C00042F480221A601A6842F480321A60ABE732
:1036D000FEF7AAFF0546664B1B6813F4003FC3D0F4
:1036E000FEF7A2FF401B6428F5D9032060E1604B80
:1036F0005B6813F4800FC6D15D4B1B6813F0020F9B
:1037000003D0E368012B40F05081594A136823F03D
:10371000F803216943EAC1031360236813F0080F1B
:1037200042D063696BB3534B0122C3F8802EFEF77E
:103730007BFF05464E4B5B6F13F0020F34D1FEF753
:1037400073FF401B0228F5D9032031E1484A136872
:1037500023F0F803216943EAC1031360DDE7454B19
:1037600000221A60FEF760FF0546414B1B6813F00C
:10377000020FD2D0FEF758FF401B0228F5D90320D4
:1037800016E13C4B0022C3F8802EFEF74DFF0546A4
:10379000374B5B6F13F0020F06D0FEF745FF401B5F
:1037A0000228F5D9032003E1236813F0040F77D032
:1037B0002F4B1B6C13F0805F33D1002301932C4BF4
:1037C0001A6C42F080521A641B6C03F08053019310
:1037D000019B0125284B1B6813F4807F23D0A3682D
:1037E000012B34D0052B38D0214B1A6F22F0010267
:1037F0001A671A6F22F004021A67A368002B3DD0E3
:10380000FEF712FF06461A4B1B6F13F0020F46D14C
:10381000FEF70AFF801B41F288339842F3D9032058
:10382000C6E00025D6E7144A136843F4807313609A
:10383000FEF7FAFE0646104B1B6813F4807FCED1CC
:10384000FEF7F2FE801B0228F5D90320B0E0084AFB
:10385000136F43F001031367CFE7054B1A6F42F074
:1038600004021A671A6F42F001021A67C5E700BF27
:10387000003802400000474200700040FEF7D4FECE
:103880000646524B1B6F13F0020F08D0FEF7CCFE1A
:10389000801B41F288339842F3D9032088E0EDB9C8
:1038A000A369002B00F08380484A926802F00C0262
:1038B000082A51D0022B17D0454B00221A66FEF77A
:1038C000B3FE0446414B1B6813F0007F42D0FEF765
:1038D000ABFE001B0228F5D9032069E03B4A136CBC
:1038E00023F080531364DBE7394B00221A66FEF79E
:1038F0009BFE0546354B1B6813F0007F06D0FEF794
:1039000093FE401B0228F5D9032051E0E369226AA7
:103910001343626A43EA8213A26A5208013A43EAF5
:103920000243E26A43EA0263284A5360284B0122B9
:103930001A66FEF779FE0446244B1B6813F0007FDD
:1039400006D1FEF771FE001B0228F5D903202FE0F7
:1039500000202DE000202BE0012B2BD01B4B5B68BF
:1039600003F48001E269914226D103F03F02216A0B
:103970008A4223D1616A47F6C0721A40B2EB811FB6
:103980001ED103F44031A26A5208013AB1EB024F52
:1039900018D103F07063E26AB3EB026F14D1002018
:1039A00006E001207047012002E0012000E0002035
:1039B00002B070BD0120FBE70120F9E70120F7E725
:1039C0000120F5E70120F3E70120F1E7003802408C
:1039D0000000474208B5254B9B6803F00C03042BFD
:1039E0003FD0082B3FD1214B5A6802F03F025B6861
:1039F00013F4800F12D01D4B5968C1F388111C4875
:103A00000023A1FB0001FDF735F8184B5B68C3F3F9
:103A1000014301335B00B0FBF3F025E0134B596821
:103A2000C1F3881C4FEA4C11B1EB0C006EEB0E0E8B
:103A30004FEA8E1343EA90638101091A63EB0E0388
:103A4000DB0043EA5173C90011EB0C0C43F1000396
:103A5000990200234FEA8C2041EA9C51FDF70AF8B5
:103A6000D3E7034800E0034808BD00BF0038024028
:103A7000001BB7000024F400002800F09B8070B504
:103A80000D4604464F4B1B6803F00F038B4208D2D0
:103A9000CBB24C4A1370136803F00F038B4240F013
:103AA0008B80236813F0020F17D013F0040F04D09B
:103AB000454A936843F4E0539360236813F0080F7A
:103AC00004D0414A936843F4604393603E4A93684C
:103AD00023F0F003A1680B439360236813F0010FF8
:103AE00032D06368012B21D09A1E012A25D9364A8B
:103AF000126812F0020F61D033498A6822F0030283
:103B000013438B60FEF790FD06462F4B9B6803F036
:103B10000C036268B3EB820F16D0FEF785FD801BA5
:103B200041F288339842F0D9032042E0264A1268D5
:103B300012F4003FE0D101203BE0234A126812F06A
:103B4000007FD9D1012034E01E4B1B6803F00F0326
:103B5000AB4207D9EAB21B4B1A701B6803F00F0384
:103B6000AB422DD1236813F0040F06D0164A936898
:103B700023F4E053E1680B439360236813F0080FCC
:103B800007D0114A936823F46043216943EAC103D3
:103B90009360FFF71FFF0C4B9B68C3F303130B4AA3
:103BA000D35CD8400A4B18600A4B1868FEF7F0FC4B
:103BB000002070BD012070470120FAE70120F8E7DE
:103BC0000120F6E7003C02400038024030C5000802
:103BD0000000002008000020014B1868704700BF5B
:103BE0000000002008B5FFF7F7FF044B9B68C3F304
:103BF0008223034AD35CD84008BD00BF003802408E
:103C000040C5000808B5FFF7E7FF044B9B68C3F306
:103C10004233034AD35CD84008BD00BF003802409D
:103C200040C5000810B4036A046A24F00104046269
:103C3000846924F0F00C4CEA021223F00A030B43CF
:103C40008261036210BC704710B4046A24F010044F
:103C500004628469036A24F4704C4CEA023223F053
:103C6000A00343EA01138261036210BC70478368BA
:103C700023F070030B4343F0070383607047000099
:103C800090F83D30DBB2012B37D1022380F83D3074
:103C90000268D36843F00103D3600368194A934272
:103CA00020D0B3F1804F1DD0A2F57C42934219D0B1
:103CB00002F58062934215D002F58062934211D0E2
:103CC00002F5784293420DD002F57052934209D02A
:103CD000A2F59432934205D01A6842F001021A60AC
:103CE000002070479A6802F00702062A07D01A6877
:103CF00042F001021A600020704701207047002046
:103D0000704700BF00000140704770477047704720
:103D100010B5044603681A6912F0020F11D0DA6870
:103D200012F0020F0DD06FF002021A610123037727
:103D300003689B6913F0030F70D0FFF7E6FF0023C1
:103D4000237723681A6912F0040F12D0DA6812F090
:103D5000040F0ED06FF004021A6102232377236848
:103D60009B6913F4407F5FD02046FFF7CEFF00230E
:103D7000237723681A6912F0080F12D0DA6812F05C
:103D8000080F0ED06FF008021A610423237723680E
:103D9000DB6913F0030F4ED02046FFF7B6FF002378
:103DA000237723681A6912F0100F12D0DA6812F024
:103DB000100F0ED06FF010021A61082323772368CA
:103DC000DB6913F4407F3DD02046FFF79EFF0023C0
:103DD000237723681A6912F0010F03D0DA6812F012
:103DE000010F36D123681A6912F0800F03D0DA6808
:103DF00012F0800F34D123681A6912F0400F03D0FB
:103E0000DA6812F0400F32D123681A6912F0200FDD
:103E100003D0DA6812F0200F30D110BDFFF774FF25
:103E20002046FFF773FF8AE72046FFF76DFF204625
:103E3000FFF76CFF9BE72046FFF766FF2046FFF782
:103E400065FFACE72046FFF75FFF2046FFF75EFF08
:103E5000BDE76FF001021A612046FEF799FAC1E74B
:103E60006FF080021A61204600F073F9C3E76FF02B
:103E700040021A612046FFF74AFFC5E76FF02002B3
:103E80001A61204600F064F9C7E700000368304A71
:103E9000904212D0B0F1804F0FD0A2F57C429042F8
:103EA0000BD002F58062904207D002F5806290420A
:103EB00003D002F57842904203D123F070034A68A0
:103EC0001343234A90422AD0B0F1804F27D0A2F565
:103ED0007C42904223D002F5806290421FD002F5CE
:103EE000806290421BD002F57842904217D002F5D2
:103EF0007052904213D002F5806290420FD002F5CA
:103F0000806290420BD0A2F59832904207D002F521
:103F10008062904203D002F58062904203D123F484
:103F20004073CA68134323F080034A691343036054
:103F30008B68C3620B688362054B984203D003F51C
:103F40008063984201D10B69036301234361704789
:103F50000000014040B310B5044690F83D30F3B185
:103F6000022384F83D30214651F8040BFFF78EFF01
:103F7000012384F8463084F83E3084F83F3084F8DA
:103F8000403084F8413084F8423084F8433084F87B
:103F9000443084F8453084F83D30002010BD80F86E
:103FA0003C30FDF7BBFEDBE70120704710B48468AE
:103FB00024F47F4C42EA03220A4342EA0C02826064
:103FC00010BC704790F83C30012B78D010B50446F7
:103FD000012380F83C30022380F83D30026893686A
:103FE00023F47F4323F0770393600B68602B4CD05E
:103FF00029D8402B54D00CD9502B22D1CA684968FB
:104000000068FFF70FFE50212068FFF730FE002008
:1040100005E0202B0DD009D9302B0AD00120012337
:1040200084F83D30002384F83C3010BD0BB1102BD8
:1040300005D119462068FFF71AFE0020EFE701209E
:10404000EDE70120EBE7B3F5805F34D0B3F5005F17
:104050000CD1CB684A6889680068FFF7A7FF22681F
:10406000936843F4804393600020D8E7702B24D1F9
:10407000CB684A6889680068FFF798FF22689368F0
:1040800043F0770393600020C9E7CA684968006875
:10409000FFF7DAFD60212068FFF7E9FD0020BEE7A9
:1040A000CA6849680068FFF7BDFD40212068FFF736
:1040B000DEFD0020B3E70020B1E70120AFE70220DA
:1040C0007047000090F83C30012B3CD010B4012325
:1040D00080F83C30022380F83D3003685A689C68C1
:1040E00022F0700C0A6842EA0C025A600368174A10
:1040F00093421AD0B3F1804F17D0A2F57C4293427D
:1041000013D002F5806293420FD002F58062934291
:104110000BD002F57842934207D002F570529342D9
:1041200003D0A2F59432934204D124F080044A686B
:1041300014439C60012380F83D30002380F83C301C
:10414000184610BC70470220704700BF00000140B5
:1041500070477047026802F10C0353E8003F23F0F8
:10416000C0030C3242E800310029F3D1202380F84B
:104170003D307047026802F10C0353E8003F23F41E
:1041800090730C3242E800310029F3D1026802F149
:10419000140353E8003F23F00103143242E80031D6
:1041A0000029F3D1036B012B05D0202380F83E308A
:1041B000002303637047026802F10C0353E8003FD9
:1041C00023F010030C3242E800310029F3D1ECE770
:1041D00090F83D30DBB2212B01D00220704783687C
:1041E000B3F5805F17D0036A5A1C02621A7803681D
:1041F0005A60C38C9BB2013B9BB2C3844BB902682B
:10420000D36823F08003D3600268D36843F040038F
:10421000D360002070470369002BE4D1036A1B8838
:104220000268C3F308035360036A02330362E0E7E2
:1042300038B504460268136923F44053C1680B4340
:10424000136183680269134342691343C2691A43C5
:104250000168CB6823F4164323F00C031343CB60AF
:104260000268536923F4407381690B435361036807
:10427000314A934206D002F58062934202D0FFF7A2
:10428000B1FC01E0FFF7BEFCE369B3F5004F29D0B4
:104290000021031849411B1841F10001C90041EAFE
:1042A0005371DB00181863684FEA83024FEA937377
:1042B00041F10001FCF7DEFB204DA5FB0032510966
:1042C000642303FB11031B013233A5FB03235B09AA
:1042D00003F0F00202EB011203F00F032168134414
:1042E0008B6038BD0023021843EB0301121841F123
:1042F0000001C90041EA5271D200101841F10001D9
:10430000626892185B41FCF7B5FB0C4DA5FB0032CF
:104310005109642303FB1103DB003233A5FB0323A4
:104320005B095A0002F4F87202EB011203F0070372
:10433000216813448B60D4E7001001401F85EB51C6
:1043400058B310B5044690F83D300BB3242384F8DD
:104350003D302268D36823F40053D3602046FFF732
:1043600067FF2268136923F490431361226853693D
:1043700023F02A0353612268D36843F40053D360C7
:1043800000202064202384F83D3084F83E3010BDA6
:1043900080F83C30FDF7FCFCD8E7012070470000B6
:1043A00038B590F83D30DBB2202B38D104460029D7
:1043B00037D0002A37D090F83C30012B35D001237C
:1043C00080F83C3001628284C28400250564212388
:1043D00080F83D30436B1648D863636B154818640A
:1043E000636B1548D864636B1D6520681346021D16
:1043F000606BFEF761FE23686FF040021A6084F87C
:104400003C50226802F1140353E8003F43F080035C
:10441000143242E800310029F3D1002000E00220EC
:1044200038BD0120FCE70120FAE70220F8E700BFD1
:10443000C34400082B4500083B45000810B504465E
:1044400003685A6990F83D30DBB2212B0AD023680B
:104450005A6902F0400294F83E30DBB2222B19D0A8
:10446000002010BD02F08002002AF0D0226802F184
:10447000140353E8003F23F08003143242E8003174
:104480000029F3D1606B08B1FEF74BFE2046FFF721
:1044900061FEDCE7002AE3D0226802F1140353E84E
:1044A000003F23F04003143242E800310029F3D1E9
:1044B000A06B08B1FEF735FE2046FFF75BFECFE7A5
:1044C000704708B50346806B1B681B6813F4807F38
:1044D0001AD10023C384026802F1140353E8003F99
:1044E00023F08003143242E800310029F3D102683E
:1044F00002F10C0353E8003F43F040030C3242E862
:1045000000310029F3D108BDFFF7DAFFFBE708B55A
:104510000168CA6822F04002CA60202280F83D206B
:10452000FFF7CEFF002008BD704708B5806BFFF78E
:10453000FBFF08BD70477047704710B5846B236858
:104540005A6994F83D30DBB2212B10D023685A69A8
:1045500002F0400294F83E30DBB2222B11D0236CE3
:1045600043F0100323642046FFF7E6FF10BD02F07E
:104570008002002AEAD00023E3842046FFF7EAFD08
:10458000E4E7002AEBD00023E3852046FFF7F2FDA5
:10459000E5E708B5806B0023C385C384FFF7CCFF34
:1045A00008BD704790F83E30DBB2222B67D183689C
:1045B000B3F5805F4DD0826AB3F5805F04D0002BE5
:1045C00054D10369002B51D103685B681370836A6F
:1045D00001338362C38D9BB2013B9BB2C385002B29
:1045E0004FD100B583B00268D36823F02003D360B5
:1045F0000268D36823F48073D3600268536923F0A0
:1046000001035361202380F83E30036B012B33D12B
:1046100000230363026802F10C0353E8003F23F018
:1046200010030C3242E800310029F3D103681A6804
:1046300012F0100F06D0002201921A6801925B68F6
:104640000193019B818DFFF7ACFF002003B05DF863
:1046500004FB0269002AAED1826A03685B68C3F377
:1046600008031380836A02338362B3E703685B68DD
:1046700003F07F031370AAE7FFF75CFFE5E7022072
:10468000704700207047000030B583B004460268D0
:104690001368D068516913F00F0505D113F0200F8E
:1046A00002D010F0200F19D12DB111F0010119D154
:1046B00010F4907F16D1216B01297DD013F0800F6B
:1046C00003D010F0800F40F0158113F0400F03D09D
:1046D00010F0400F40F0128103B030BD2046FFF7CC
:1046E00061FFF9E713F0010F06D010F4807F03D0CB
:1046F000226C42F00102226413F0040F04D019B1BD
:10470000226C42F00202226413F0020F04D019B1AD
:10471000226C42F00402226413F0080F07D010F05C
:10472000200F00D119B1226C42F008022264226CE1
:10473000002AD1D013F0200F02D010F0200F29D181
:1047400023685B6903F04003226C12F0080F00D16C
:1047500063B32046FFF70EFD23685B6913F0400F3B
:1047600020D0226802F1140353E8003F23F04003F5
:10477000143242E800310029F3D1A36B73B1614ACE
:104780001A65A06BFEF717FD0028A5D0A06B036D7E
:104790009847A1E72046FFF705FFD1E72046FFF73E
:1047A000CBFE99E72046FFF7C7FE95E72046FFF7C7
:1047B000C3FE002323648FE713F0100F3FF47EAF96
:1047C00010F0100F3FF47AAF0023019313680193A8
:1047D00053680193019B536913F0400F50D0A26BB3
:1047E00013685B689BB2002B3FF476AFA18D9942B2
:1047F0007FF672AFE385D369B3F5807F37D0226847
:1048000002F10C0353E8003F23F480730C3242E8BA
:1048100000310029F3D1226802F1140353E8003F6C
:1048200023F00103143242E800310029F3D1226859
:1048300002F1140353E8003F23F04003143242E82E
:1048400000310029F3D1202384F83E300023236374
:10485000226802F10C0353E8003F23F010030C32EE
:1048600042E800310029F3D1A06BFEF75AFCA18D7C
:10487000E38D9BB2C91A89B22046FFF792FE2BE75F
:10488000A18DE38D9BB2C91A89B2E38D9BB2002B37
:104890003FF422AF00293FF41FAF226802F10C035E
:1048A00053E8003F23F490730C3242E800300028B4
:1048B000F3D1226802F1140353E8003F23F001030F
:1048C000143242E800300028F3D1202384F83E302F
:1048D00000232363226802F10C0353E8003F23F016
:1048E00010030C3242E800300028F3D12046FFF7D5
:1048F00058FEF1E62046FFF76BFCEDE62046FFF799
:1049000006FEE9E69345000808B5806B036B012BB2
:1049100002D0FFF710FE08BD818D4908FFF741FE68
:10492000F9E708B50346806B1B681B6813F4807FAA
:104930002BD10023C385026802F10C0353E8003F2A
:1049400023F480730C3242E800310029F3D102686D
:1049500002F1140353E8003F23F00103143242E84C
:1049600000310029F3D1026802F1140353E8003F3B
:1049700023F04003143242E800310029F3D1202310
:1049800080F83E30036B012B05D0036B012B0FD059
:10499000FFF7D0FD08BD026802F10C0353E8003FA9
:1049A00023F010030C3242E800310029F3D1ECE788
:1049B000818DFFF7F6FDEDE730B583B00446134671
:1049C0008162828500250564222280F83E20826B68
:1049D0002048D063A26B20481064A26B1F48D064AB
:1049E000A26B156520680A46011DA06BFEF764FBEB
:1049F000019523681A6801925B680193019B84F812
:104A00003C5023695BB1226802F10C0353E8003F7C
:104A100043F480730C3242E800310029F3D122685C
:104A200002F1140353E8003F43F00103143242E85B
:104A300000310029F3D1226802F1140353E8003F4A
:104A400043F04003143242E800310029F3D1002042
:104A500003B030BD23490008094900083B45000860
:104A600008B590F83E30DBB2202B0DD171B17AB190
:104A700090F83C30012B0DD0012380F83C3000230E
:104A80000363FFF799FF00E0022008BD0120FCE767
:104A90000120FAE70220F8E7014B1868704700BFD1
:104AA0000C00002070B50D4E0D4D761BB61006D0D3
:104AB000002455F8043B01349847A642F9D1094E29
:104AC000094D761B07F028FDB61006D0002455F8D6
:104AD000043B01349847A642F9D170BD5CCB000875
:104AE0005CCB000864CB00085CCB0008830730B5C2
:104AF00048D0541E002A3FD0CAB2034601E0013C10
:104B00003AD303F8012B9D07F9D1032C2DD9CDB24F
:104B100045EA05250F2C45EA054536D9A4F11002D2
:104B200022F00F0C03F1200EE6444FEA121C03F1B1
:104B3000100242E9045542E9025510327245F8D19B
:104B40000CF1010214F00C0F03EB021204F00F0C35
:104B500013D0ACF1040323F003030433134442F8ED
:104B6000045B9342FBD10CF003042CB1CAB21C4489
:104B700003F8012B9C42FBD130BD64461346002C48
:104B8000F4D1F9E703461446BFE71A46A446E0E726
:104B90002DE9F04F1C46984B1B68A1B000258146BB
:104BA0001846884608921C950493FCF789F9002161
:104BB00083460020CDE90601CDF86C8042461746B9
:104BC00012F8013B2D2B2FD8DFE813F0A1002E00A7
:104BD0002E002E002E002E002E002E002E00AF00E4
:104BE000AF00AF00AF00AF002E002E002E002E0051
:104BF0002E002E002E002E002E002E002E002E0045
:104C00002E002E002E002E002E002E00AF002E00B3
:104C10002E002E002E002E002E002E002E002E0024
:104C20002E0006042E00FC0300220A92302B7ED0B8
:104C3000002209922F2B1C4640F233854FF0000AC8
:104C400038465646554612E00130082D1B90C8BF25
:104C50000AEB8A0A0478C6BF03EB4A03A3F1300AC1
:104C6000A2F130062F2C05F10105234670DD06EB7D
:104C70008602392C03EB4202E6DD04995A4602F023
:104C800035F90346002835D11B9A11465A441B9228
:104C900011F80B40002D40F0AC85302C40F06485BD
:104CA000C2F10101531801321B921478302CF9D053
:104CB000A4F13102082A00F23883A4F1300E1B9CC3
:104CC00003F1010B002301252746049306EB86061A
:104CD0000EEB46060023621C1B926478A4F130019F
:104CE000092900F2ED8201338E46002940F0B88494
:104CF0001B9CF0E70023652C04959B469E4601D043
:104D0000452C32D1002D7CD1099A1A4378D1089BC9
:104D100013B1089BC3F800804FF0000BCDF810B022
:104D20000499584621B0BDE8F08F1B9247E77B7885
:104D300003F0DF03582B00F0748401371B973B7896
:104D4000302BFAD0002B00F0CC800122099271E7C1
:104D500004995A4602F0CAF80346002800F0D680AB
:104D600004954FF0000B5B46DE4600220B92002DAF
:104D700000F09380049A1346002A08BF2B46304661
:104D80000493FBF733FC0B460246CDE906230B9B4D
:104D9000102DA3EB0B032C46A8BF1024092D0E9356
:104DA00013DD164B03EBC40353E91223FCF748F958
:104DB000CDE906015046FBF719FC02460B46DDE93A
:104DC0000601FBF7D7FACDE906010F2D00F3A78006
:104DD0000E9B002B00F018840E9B40F39283162B41
:104DE00040F3F9840E9AC5F12503934280F20C85B5
:104DF0000E9B2C1B1C4498E068C7000828C80008BC
:104E00000025DDF86C8008F101021B9298F8014042
:104E10002B2C00F087822D2C00F0218200220E9294
:104E2000A4F13002092A00F21582302C05D11B9A18
:104E300001321B921478302CFAD0A4F13102082AE6
:104E400093D81B990B914A1C1B92A4F130004C780B
:104E50002F2C09DC00F034BC01321B929CF801407D
:104E60002F2CA1F1300006DD00EB8001392C944697
:104E700004EB4101F0DD0B99521A082A40F320841B
:104E800044F61F620B920E9A002A3FF470AF0B9A01
:104E900052420B92002D7FF46DAF099A134320D13B
:104EA000BEF1000F7FF433AF692C00F03B8400F3B8
:104EB0004183492C00F036844E2C7FF428AFAC4956
:104EC0001BA801F0DBF900283FF421AF1B9B1B78E6
:104ED000282B00F06D85A74801F0FEFF8346049162
:104EE00003E04FF0000BCDF810B0089A0AB11B9BFD
:104EF00013600A9B002B3FF413AF049901F10043A8
:104F000004930499584621B0BDE8F08F1B9A04958C
:104F100002EB0B011B9112F80B409B46DEE60E9B49
:104F20002C1B1C44002C40F30A8314F00F000AD001
:104F3000914901EBC001DDE90623D1E90001FCF74D
:104F40007FF8CDE9060134F00F0340F08B82002397
:104F50000993049A00962B463946484601F022FBF5
:104F60001390002800F055830B9BABEB03000E9BC6
:104F7000002BB4BF024600220F9223EAE373002203
:104F8000934612939046139C4846616801F08AFA52
:104F90000746002800F0418122690232920004F1A4
:104FA0000C010C30FBF7E8FEDDE9060104910B462D
:104FB0001EA901911DA90B9002460091484601F0DF
:104FC0009DFE1C90002800F018810121484601F048
:104FD00091FB8046002800F020811D9B002BC0F231
:104FE0000F810F9A129D9E18099A1E9C9B1A2344AA
:104FF000624A013B9342C4F1360480F2AE80D21A79
:105000001F2AA4EB020400F31D814FF0010A0023C4
:105010000AFA02FA0C93099B25443444A6421D4423
:105020003346A8BF2346AB42A8BF2B46002B02DD68
:10503000E41AED1AF61A0F9B002B00F3BE80002C29
:1050400000F3D2800E9B002B00F3DE80002D00F3D6
:10505000EF80002E08DD41463246484601F086FCCE
:105060008046002800F0D9801C993A46484601F055
:1050700015FD8346002800F0D0800026C368C66076
:105080004146109301F0EAFCB042C0F2638400F0A4
:10509000D2834146584601F093FE00224FF08043F0
:1050A00004460D46FCF748FA00286FD0109B002BF1
:1050B00000F0E180079B1193314B314C0022CDE988
:1050C0000C2335462F4E119A2F4B02EA060A9A45B9
:1050D00000F0FC80099B93B1BAF1D46F0FD822A3E2
:1050E000D3E9002328462146FCF726FA002840F0A1
:1050F00087810D9B03F1D663A3EB0A030D93049EF6
:105100000B98DDE90C233146CDE9042301F06CFD59
:1051100002460B46DDE90401FBF792FF33460B9A8A
:10512000FBF728F9CDE906010E46099B23B9154B7B
:1051300033409A4500F002811C99484601F0D8F9A5
:105140003946484601F0D4F94146484601F0D0F9C5
:105150005946484601F0CCF915E700230C934FF06F
:10516000010A58E7AFF300800000C0FFFFFFDF41F6
:1051700070C500086CC9000828C8000802FCFFFFC1
:105180000000F03F0000F07F0000E07FAE4B2046C3
:1051900029460022FBF754FF109B024605460C46A9
:1051A000002B64D101F1004314901593079B1193D8
:1051B000DDE91423CDE90C2384E741461A4648462D
:1051C00001F074FB804640B301461C9A484601F04A
:1051D000BFFA10B310901C99484601F089F9109B52
:1051E0001C93002C7FF72EAF1C992246484601F0F5
:1051F000BDFB1C9000287FF425AFBA465E460FE049
:10520000129A0F9ED51AEFE63946129A484601F0D7
:105210004DFB074600287FF419AFBA465E461C983E
:105220002223C9F80030894B04934FF0000BB4E0FF
:1052300039462A46484601F099FB074600287FF484
:1052400008AFEAE7824A4FF0010AD31A0AFA03F3D9
:105250000C93E0E60022CDF86C800B9287E50122EA
:105260000E9208F102021B9298F80240D8E50B4614
:10527000CDE914239AE7DDE90612002940F0AF805A
:10528000C2F313031192002B40F0AF80714B002248
:1052900020462946FCF746F9002840F0AE826A4BCA
:1052A000204629460022FBF7CBFE01F100430546CC
:1052B0000C4618901993DDE91823CDE90C2301E77A
:1052C000652C4FF0010E3FF49CAD19E5A2F154732B
:1052D0000793DDE90623DDE90C01CDE9060110465F
:1052E0001946CDE90C2301F07FFC02460B46DDE9AF
:1052F0000601FBF7A5FEDDE90C23FBF73BF8564A58
:105300000E409642CDE9060176D9049A534B9A4253
:1053100002D10B9B013380D0504A4FF0FF33CDE9CF
:10532000063209E700220E929BE7652C00F0FB8015
:10533000452C00F0F8804FF0010EAEE528462146DE
:10534000FCF7DCF9FBF79EF90B460246214628469E
:10535000FBF70EF8109C069DC6F3130644EA050CF5
:105360005CEA060304460D4600F0C28032A3D3E98E
:105370000023FCF7D7F848B931A3D3E9002320462E
:105380002946FCF7EDF800283FF4D6AEDDE90634F7
:105390001C9804945E46BA469B460146484601F076
:1053A000A7F85146484601F0A3F84146484601F0A7
:1053B0009FF81399484601F09BF83146484601F0A2
:1053C00097F892E501230A937A1C1B927B78002BB5
:1053D0003FF49DAC174629E400230A93F4E7DDE986
:1053E0000612012900F0748111921D4B194C002204
:1053F000CDE90C23002565E601F15476079694E685
:1054000021462846FCF7F4F8012838BF0120FBF7B5
:10541000EDF8109B024605460C46002B40F06981D2
:1054200001F1004316901793DDE91623CDE90C2313
:105430005FE600BFAFF300809535A094FFFFDF3F2C
:1054400035E5AF350000E03F0000E03F0000F07FB1
:10545000E2FBFFFF0000F03FFFFF9F7CFFFFEF7FBD
:105460000000F0BFB3F59A7F00F3D380102B4FEA12
:105470002314A54B40F3C682DDE906019846099343
:1054800000239A4614F0010F0AF1010A4FEA64045E
:1054900004D0D8E90023FBF7D3FD0123012C08F148
:1054A0000808EFD10BB1CDE90601099B03EBCA0156
:1054B000079BA3F154730793DDE90623D1E90001AB
:1054C000FBF7BEFD914BCDE906010B400A46904922
:1054D0008B4200F29E80A1F580118B4240F21C822B
:1054E0008C494FF0FF33CDE906310023099330E5B5
:1054F00083A3D3E90023FCF715F800283FF41CAE82
:1055000044E71633FFF60BAD0B9BABEB0302824B6C
:1055100003EBC203DDE90601D3E90023FBF7BAFE82
:1055200083460491E1E40022049293464FF0010E79
:10553000FFF7EABB6E2C3FF4C2ACFFF7E8BB3FF4C9
:1055400006AD644214F00F020AD0734B03EBC203A2
:10555000DDE90601D3E90023FBF79CFECDE9060156
:1055600024113FF4F4AC1F2C35DC14F01003DDE9FA
:10557000060118BF6A23DFF8A48109930023E2071C
:1055800004D5D8E90023FBF75BFD0123641008F183
:105590000808F4D10BB1CDE90601099B93B1DDE90F
:1055A0000601C1F30A52C2F16B03002B0ADD1F2B67
:1055B00040F350820020342B069040F356824FF087
:1055C0005C730793DDE9060100220023FBF7A0FFCF
:1055D00000283FF4BEAC22234FF0000BC9F8003086
:1055E000CDF810B081E41E9B06931D9B03F233425D
:1055F0001F9B23F4801343EA02530793200742BF03
:10560000079B43F000430793DDE906349B4604946F
:105610006BE43E4A04922223C9F800304FF0000B9D
:1056200063E40A9B01931CAB029400933C4A1DABBC
:105630001BA9484600F044FB10F0070504463FF460
:1056400050AC062D40F09380089B0137002B3FF4AF
:1056500063AB4FF0000B1F60CDF810B0FFF760BBDD
:105660006A1C012B1B9C9B44104615D02B4403F154
:10567000FF3C03E0460094450DD001322B46082B39
:10568000154606EB8600F5D9102ADCBF0AEB8A0A1C
:105690004FEA4A0AEFE7981C082D5BDC0546FFF746
:1056A00015BB04995A46384601F020FC002800F04A
:1056B000888000231D4604939A461E46FFF751BB7F
:1056C00044F61F629042A8BF10460B90FFF7DBBB69
:1056D000DDE906341194002C7FF487AEBA465E46AD
:1056E00022234FF0000B1C98C9F80030CDF810B001
:1056F00053E60B46CDE9162396E600BFAFF30080D4
:105700009535A094FFFFCF3F00C800080000F07F50
:105710000000A07CFFFFEF7F28C80008A0C500089C
:1057200074C50008AD491BA800F0A8FD00283FF48F
:10573000EEAA1B9BAA49013B1BA81B9300F09EFDF0
:1057400010B91B9B01331B93A64B04934FF0000B26
:10575000FFF7CBBB1028DCBF0AEB8A0A01EB4A0A31
:1057600005460023FFF7B7BA0023FFF7A1BA1C9A3A
:105770003AB135211EA801F051FB1C99484600F0B2
:10578000B7FE013D042D3FF639AF01A353F825F0D4
:10579000E7550008B9570008B3570008A557000897
:1057A000E75500084FF0FF336FF00045CDE90635AF
:1057B00024E78C4B079321E71E9B06931F9B0793BF
:1057C0001CE71B9A13465A441B9213F80B400646DB
:1057D0008246FFF762BA0E98834901EBC001DDE90A
:1057E0000623D1E90001FBF72BFC83460491FFF768
:1057F0007CBB04958346FFF771BA7C4B7C4C109DB3
:105800000022CDE9182356E5774CC5F10F0504EBCE
:10581000C501DDE90623D1E90001FBF711FC0E9B70
:105820005D1B04EBC504D4E90023FBF709FC8346A8
:105830000491FFF75ABB109B5E46D446BA46DDE999
:105840000BB7002B6FD0DDE906456A4BC5F313019A
:1058500099422A463CD0002F00F0A380DDE90623C0
:105860001F421C4621D0109B04995846002B00F083
:10587000CD8001F0B9F9099D02460B467DB1C4F314
:105880000A54C4F16B04002C09DD240504F17F5394
:10589000002203F54013FBF7D3FB02460B460499A5
:1058A0005846FAF767FD83460491099B73B1049942
:1058B000514B58460022FBF7C3FB03460B4308BF7E
:1058C00022238346049108BFC9F800301C9864E580
:1058D000099B0699002B00F0C580424B2B40B3F189
:1058E000D46F00F2BF801B0DC3F16B034FF0FF308C
:1058F00000FA03F39942AED1404B9A4200F0D880AF
:10590000384B134003F58013079300230693DDE91A
:1059100006349B460494C8E702F1547307930023AE
:105920000993FFF716BBDDE90612C2F313030B431D
:10593000144690D1099B002B40F0AF80294B2340A7
:10594000A3F580136FEA13536FEA035307934FF0E5
:10595000FF33DBE7DDE90612109B0B4358465E463A
:10596000BA46DDF82CB0A0D1C2F313031446002BC5
:105970009BD122F000431B0D1B05B3F1D66F94D9C8
:10598000436913B90369012B8FDD31460122484673
:1059900000F0ECFF4146064601F060F8002884DD87
:1059A000C8E7DDE906341CEA030F3FF47EAF5AE78F
:1059B00013491BA81EAA00F07BFC05287FF48BAAC4
:1059C0001F9B43F0FF4343F4E00307931E9B0693A2
:1059D000DDE906349B460494FFF787BA64C50008E6
:1059E00068C500080000F07F28C800080000E0BF7C
:1059F0000000E03FFFFF0F0000005039FFFFEF7F86
:105A000088C5000809934FF0000A4EE501F0ECF854
:105A1000099D02460B4695B3C4F30A54C4F16B04C6
:105A2000002C09DD240504F17F53109A03F540137F
:105A3000FBF706FB02460B4604995846FAF798FC1A
:105A40000022002383460491FBF762FD00283FF407
:105A50002EAF45E64FF0FF3202FA03F3069A1A40E2
:105A60000692AFE54FF0FF3344E74FF0FF33C2F14A
:105A70004B0203FA02F202EA01030793A2E504993A
:105A80005846FAF775FC0022002383460491FBF781
:105A90003FFD00283FF41AAF22E6084B2340B3F144
:105AA000D66F3FF74DAFB3F15C7F3FF700AF17E61E
:105AB00001317FF425AFFFF7B2BB00BF0000F07FDC
:105AC0002DE9F041214F224B04460A463868214611
:105AD000FFF75EF802460B4605460C46FBF74AFD0B
:105AE00040BB21462846FBF7A3FD20F000480646B0
